QUICKFIT	MACRO %53A(1155) 08:02 25-Feb-82 Page 1
NEWHPD	MAC	24-Oct-70 13:02

						SEARCH	RTSYM(RTSYM.UNV[31024,320155])
						$MODULE	QUICKFIT^


			000000			DEBUG=	0
					;
					;     ENTRY POINTS
					;
						ENTRY	ALC0.
						ENTRY	NEW.
						ENTRY	DSPOS.
						ENTRY	MARK.
						ENTRY	RLEAS.
					;
					;     TTY BREAK
					;
						EXTERN	TWAIT.,DIE.,WRTPC.
					;
					;     HEAP HEADER
					;
			000000			LHEAP=	0		; PTR TO LAST HEAP
			000001			TAIL=	1		; PTR TO WORD PAST END OF HEAP
			000002			FLIST=	2		; PTR (0:ERSIZE+1) TO FREE LIST CHAINS
			000020			ERSIZE=	20		; EXACT RANGE SIZE
			000024			HSIZE=	FLIST+ERSIZE+2	; TOTAL HEADER SIZE
					;
					;     STORAGE PARAMETERS
					;
			000001			SMALL=	1		; DON'T SPLIT LEAVING REMNANTS OF THIS SIZE
			000002			MINSZ=	2		; LIMITS OF EXACT RANGE
			000021			MAXSZ=	MINSZ+ERSIZE-1
			000004			MXTCNT=	4		; NUMBER OF TAIL EXTENSIONS BEFORE COLLAPSE
					;
					;     BLOCK FORMAT
					;
			000000			ASIZE=	0		; BLOCK IN USE, NEG. CNT IN FIRST WORD
			000001			FSIZE=	1		; FREE BLOCK, CNT IN SECOND WORD
									; SIZES INCLUDE HEADER WORD
			000000			FPREV=	0		; TO LAST BLOCK ON CHAIN (LEFT HW)
									;   OR FLIST(SLOT) IF FIRST
			000000			FNEXT=	0		; TO NEXT BLOCK ON CHAIN (RIGHT HW)
					;
QUICKFIT	MACRO %53A(1155) 08:02 25-Feb-82 Page 1-1
NEWHPD	MAC	24-Oct-70 13:02

					;     REGISTER ASSIGNMENTS
					;
			000001			REGIN=	1
			000003			HEAP=	EXP1+1	; PTR TO HEAP IN USE
			000002			CNT=	EXP1		; SIZE TO BE ALLOCATED
			000004			SLOT=	EXP1+2	; SLOT INDEX IN FLIST FOR BLOCK
			000001			BLK=	1		; PTR TO BLOCK TO BE FREED
			000005			T=	EXP1+3	; TEMPS
			000006			R=	EXP1+4	; MUST BE T+1
			000007			NB=	EXP1+5	; PTR TO NEXT BLOCK IN COLLAPSE
			000007			RES=	EXP1+5	; PTR TO AREA RETURNED
			000002			HP=	EXP1		; HEAP PTR FOR MARK AND RELEASE

					;
					; PSA STORAGE
					;
						$STATIC	CHEAP,1^
						$STATIC	PASS,1^
						$STATIC	TCNT,1^
						$STATIC	REGSAVE,6^
						$STATIC	DUMPF,1		^; file variable for dumping
						$STATIC	DESTREG,1^
					;
					;     INITIALIZATION:  GET SPACE IN WHICH TO PUT INITIAL PORTION
					;     OF HEAP. INITIALIZE NEW HEAP.
					;
	400000'				ALC0.:
	400000'	550 03 0 00 000000*	INIT:	HRRZ	HEAP,.JBFF##	; GET PTR TO START OF LOW FREE
	400001'	211 00 0 00 000004 		MOVNI	R0,MXTCNT
	400002'	202 00 0 14 000002 		MOVEM	R0,TCNT^.TCNT(psa)^
	400003'	402 00 0 14 000011 		SETZM	0,DUMPF^.DUMPF(psa)^
					;
					;     SUBROUTINE TO INITIALIZE A NEW HEAP HEADER.  ENTERED
					;     WITH HEAP POINTING TO THE NEW HEAP AND CHEAP TO
					;     THE LAST HEAP. MAKES SURE THERE IS SPACE FOR HEAP.
					;
	400004'	201 05 0 03 001000 	NEWHP:	MOVEI	T,1K(HEAP)	; MAKE SURE THERE IS A K FOR NEW HEAP
	400005'	047 05 0 00 000011 		CORE	T,		; TRY ALLOCATION
	400006'	254 00 0 00 400132'		JRST	HFL.AC		; TOO LITTLE CORE
	400007'	201 05 1 14 000000 		MOVEI	T,@CHEAP	^.CHEAP(psa)^; GET POINTER TO LAST HEAP
	400010'	202 05 0 03 000000 		MOVEM	T,LHEAP(HEAP)
	400011'	201 05 0 03 000024 		MOVEI	T,HSIZE(HEAP);	; GET POINTER TO FIRST FREE WORD
QUICKFIT	MACRO %53A(1155) 08:02 25-Feb-82 Page 1-2
NEWHPD	MAC	24-Oct-70 13:02

	400012'	202 05 0 03 000001 		MOVEM	T,TAIL(HEAP);
	400013'	205 05 0 00 777756 		MOVSI	T,-ERSIZE-2	; FAST LOOP TO ZERO FREE LIST
	400014'	541 05 0 03 000000 		HRRI	T,(HEAP)	; BUILD CONTROL WORD
	400015'	402 00 0 05 000002 		SETZM	FLIST(T)	; ZERO IT
	400016'	253 05 0 00 400015'		AOBJN	T,.-1
	400017'	202 03 0 14 000000 		MOVEM	HEAP,CHEAP	^.CHEAP(psa)^; UPDATE CURRENT HEAP PTR
	400020'	263 17 0 00 000000 		POPJ	TOP,		; RETURN
					;
					;     SUBROUTINE TO CALCULATE THE SLOT THAT BLOCK BELONGS IN.
					;     ENTERED WITH SIZE LOADED IN CNT, AND RETURNS WITH SLOT
					;     INDEX IN SLOT.
					;
	400021'	305 02 0 00 000002 	CSLOT:	CAIGE	CNT,MINSZ	; CHECK IF BELOW EXACT RANGE
	400022'	254 00 0 00 400027'		JRST	CSLOW
	400023'	303 02 0 00 000021 		CAILE	CNT,MAXSZ	; CHECK IF ABOVE
	400024'	254 00 0 00 400031'		JRST	CSHIGH
	400025'	201 04 0 02 777777 		MOVEI	SLOT,1-MINSZ(CNT)  ;COMPUTE SLOT NUMBER
	400026'	263 17 0 00 000000 		POPJ	TOP,
	400027'	402 00 0 00 000004 	CSLOW:	SETZM	SLOT		; BELOW, SLOT = 0
	400030'	263 17 0 00 000000 		POPJ	TOP,
	400031'	201 04 0 00 000021 	CSHIGH:	MOVEI	SLOT,ERSIZE+1	; ABOVE
	400032'	263 17 0 00 000000 		POPJ	TOP,
					;
					;     NEW -- ALLOCATE STORAGE OF CNT WORDS
					;
	400033'				NEWERR:
	400033'	200 00 0 17 000000 		MOVE	R0,0(TOP)
						$RTERROR ($EXSPC,$SPCNN)^
	400034'	201 01 0 00 014003 		movei	r1,$errcode($EXSPC,$SPCNN,$false)^$EXSPC*2000+$false*1000+$SPCNN^^
	400035'	254 00 0 00 000000*		jrst	rt.err^
	400036'				NEW.:
	400036'	350 01 0 17 000000 		AOS	R1,0(TOP)	; TICK RETURN ADDR, AND GET ARG BLK ADDR
	400037'	201 00 1 01 777777 		MOVEI	R0,@-1(R1)	; EA of arg is size
	400040'	135 01 0 00 400470'		LDB	R1,[point 4,-1(R1),12]	; dest reg
	400041'	261 17 0 00 000014 		PUSH	TOP,PSA
	400042'	200 14 0 15 000017 		MOVE	PSA,$QFIT(PDA)
						$SAVE	REGSAVE,2,7^
	400043'	124 02 0 14 000003 		dmovem	$first,REGSAVE^.REGSAVE(psa)^
	400044'	124 04 0 14 000005 		dmovem	$first+2,2+REGSAVE^.REGSAVE(psa)^
	400045'	124 06 0 14 000007 		dmovem	$first+4,4+REGSAVE>>>>^^.REGSAVE(psa)^
	400046'	202 01 0 14 000012 		MOVEM	R1,DESTREG^.DESTREG(psa)^
	400047'	200 02 0 00 000000 		MOVE	EXP1,R0
QUICKFIT	MACRO %53A(1155) 08:02 25-Feb-82 Page 1-3
NEWHPD	MAC	24-Oct-70 13:02

	400050'	321 02 0 00 400033'		JUMPL	CNT,NEWERR	; ERROR OUT IF NEGATIVE BLOCK SIZE REQUESTED
	400051'	307 02 0 00 000000 		CAIG	CNT,0		; CAN ALLOCATE ZERO BLOCK ALRIGHT, BUT REQUIRE
	400052'	201 02 0 00 000001 		MOVEI	CNT,1		; AT LEAST TWO WORDS TO TRACK BLOCK WHEN
									; DISPOSED
	400053'	201 03 1 14 000000 		MOVEI	HEAP,@CHEAP	^.CHEAP(psa)^; GET PTR TO CURRENT HEAP
	400054'	306 03 0 00 000000 		CAIN	HEAP,0		; INIT, IF HAVE NOT ALREADY DONE SO
	400055'	260 17 0 00 400000'		PUSHJ	TOP,INIT
	400056'	271 02 0 00 000001 		ADDI	CNT,1		; ONE WORD FOR BLOCK DESCRIPTOR WROD
						IFN	DEBUG	<PUSHJ TOP,TELCNT>
	400057'	476 00 0 14 000001 		SETOM	PASS	^.PASS(psa)^	; FLAG NO OF COLLAPSES
	400060'	260 17 0 00 400021'		PUSHJ	TOP,CSLOT	; CALC SLOT INDEX FOR BLOCK
	400061'	322 04 0 00 400135'		JUMPE	SLOT,BELOW	; SLOT 0 - BELOW RANGE
	400062'	303 04 0 00 000020 		CAILE	SLOT,ERSIZE	; SKIP IF IN EXACT RANGE
	400063'	254 00 0 00 400146'		JRST	ABOVE

					;
					;     REQUESTED ALLOCATION IS IN EXACT RANGE.  FIRST TRY TO FIND
					;     A BLOCK OF THE REQUIRED SIZE.  ONE EXISTS IF THE FREE LIST
					;     FOR THAT SIZE IS NON NULL.  IF THERE IS NOT SUCH BLOCK
					;     THEN CONTINUE TO ATTEMPT ALLOCATIONS BY OTHER METHODS, BELOW.
					;
	400064'	201 05 0 03 000002 	EXACT:	MOVEI	T,FLIST(HEAP)	; GET ADDRESS OF FREELIST SLOT TO LOOK AT
	400065'	270 05 0 00 000004 		ADD	T,SLOT
	400066'	201 07 1 05 000000 		MOVEI	RES,@0(T)	; LOAD PTR TO FIRST SLOT
	400067'	322 07 0 00 400122'		JUMPE	RES,ESRCH	; IF ZERO, LIST IS NULL, TRY OTHER METHOOS

	400070'	550 06 0 07 000000 		HRRZ	R,FNEXT(RES)	; GET PTR TO NEXT ON LIST
	400071'	202 06 0 05 000000 		MOVEM	R,0(T)		; UNCHAIN BLOCK, SET FLIST TO NEXT
	400072'	506 05 0 06 000000 		HRLM	T,FPREV(R)	; NEXT.PREV = FLIST(SLOT)
	400073'	212 02 0 07 000000 		MOVNM	CNT,ASIZE(RES)	; FLAG BLOCK AS IN USE
	400074'	254 00 0 00 400076'		JRST	.+2		; NO NEED TO UNWIND STACK

	400075'	262 17 0 00 000005 	DONE:	POP	TOP,T		; UNWIND CALL STACK
	400076'	402 00 0 07 000001 		SETZM	1(RES)		; ALWAYS ON WORD
	400077'	210 01 0 07 000000 		MOVN	R1,0(RES)	; GET BLOCK SIZE
	400100'	307 01 0 00 000002 		CAIG	R1,2
	400101'	254 00 0 00 400107'		JRST	NEWRET
	400102'	201 02 0 07 000002 		MOVEI	EXP1,2(RES)	; PREPARE BLT TO ZERO BLOCK
	400103'	505 02 0 07 000001 		HRLI	EXP1,1(RES)
	400104'	201 03 0 07 777777 		MOVEI	EXP2,-1(RES)
	400105'	270 03 0 00 000001 		ADD	EXP2,R1
	400106'	251 02 0 03 000000 		BLT	EXP1,0(EXP2)
QUICKFIT	MACRO %53A(1155) 08:02 25-Feb-82 Page 1-4
NEWHPD	MAC	24-Oct-70 13:02

	400107'	201 02 0 07 000001 	NEWRET:	MOVEI	EXP1,1(RES)	; ADVANCE TO POINT TO DATA AREA
						IFN	DEBUG	<MOVEI  BLK,-1(EXP1)
								 PUSHJ TOP,TELBLK>
	400110'	201 05 0 00 000116 		MOVEI	5,"N"		; this was a new
	400111'	260 17 0 00 400427'		PUSHJ	TOP,WRREC	; do it
	400112'	200 00 0 00 000002 		MOVE	R0,EXP1		; get in other register
	400113'	200 01 0 14 000012 		MOVE	R1,DESTREG	^.DESTREG(psa)^; where to put it
						$RESTORE REGSAVE,2,7^
	400114'	120 02 0 14 000003 		dmove	$first,REGSAVE^.REGSAVE(psa)^
	400115'	120 04 0 14 000005 		dmove	$first+2,2+REGSAVE^.REGSAVE(psa)^
	400116'	120 06 0 14 000007 		dmove	$first+4,4+REGSAVE>>>>^^.REGSAVE(psa)^
	400117'	262 17 0 00 000014 		POP	TOP,PSA		; restore it
	400120'	202 00 0 01 000000 		MOVEM	R0,0(R1)	; return it
	400121'	263 17 0 00 000000 		POPJ	TOP,		; RETURN FROM NEW
					;
					;     REST OF EXACT RANGE SIZE METHODS.  TRY EACH IN TURN. IF THEY
					;     FAIL, THEY WILL RETURN; OTHERWISE, THEY JUMP TO DONE.
					;
	400122'	260 17 0 00 400155'	ESRCH:	PUSHJ	TOP,TAILA	; ALLOCATE OFF THE TAIL
	400123'	260 17 0 00 400204'		PUSHJ	TOP,SPLIT	; TRY SPLITING BIGGER EXACT RANGE BLOCKS
	400124'	260 17 0 00 400165'		PUSHJ	TOP,GROWT	; CALL MONITOR TO EXTEND TAIL
	400125'	260 17 0 00 400233'		PUSHJ	TOP,MISCA	; TRY SPLITTING BLOCKS ABOVE RANGE
	400126'	352 00 0 14 000001 		AOSE	PASS	^.PASS(psa)^	; IF FIRST PASS, TRY COLLAPSE
	400127'	254 00 0 00 400132'		JRST	HFL.AC		; IF SECOND, GIVE UP
	400130'	260 17 0 00 400244'		PUSHJ	TOP,COLLPS
	400131'	254 00 0 00 400064'		JRST	EXACT

	400132'				HFL.AC:
	400132'	200 00 0 17 000000 		MOVE	R0,0(TOP)
						$RTERROR ($EXSTO,$NONE)^
	400133'	201 01 0 00 010000 		movei	r1,$errcode($EXSTO,$NONE,$false)^$EXSTO*2000+$false*1000+$NONE^^
	400134'	254 00 0 00 400035*		jrst	rt.err^
					;
					;     ALLOCATE A BLOCK BELOW THE EXACT RANGE.  TRY FINDING A BLOCK
					;     IN SLOT 0, THEN GETTING SOMETHING FROM THE TAIL, THEN SPLITING
					;     EXACT RANGE AND LARGER BLOCKS.
					;
	400135'	260 17 0 00 400235'	BELOW:	PUSHJ	TOP,MISCB	; SEARCH SMALL BLOCKS
	400136'	260 17 0 00 400155'		PUSHJ	TOP,TAILA	; GET FROM TAIL
	400137'	260 17 0 00 400204'		PUSHJ	TOP,SPLIT	; SPLIT ER BLOCKS
	400140'	260 17 0 00 400165'		PUSHJ	TOP,GROWT	; EXTEND TAIL
	400141'	260 17 0 00 400233'		PUSHJ	TOP,MISCA	; TRY BIG BLOCKS
QUICKFIT	MACRO %53A(1155) 08:02 25-Feb-82 Page 1-5
NEWHPD	MAC	24-Oct-70 13:02

	400142'	352 00 0 14 000001 		AOSE	PASS	^.PASS(psa)^	; TRY COLLAPSE IF FIRST PASS
	400143'	254 00 0 00 400132'		JRST	HFL.AC
	400144'	260 17 0 00 400244'		PUSHJ	TOP,COLLPS
	400145'	254 00 0 00 400135'		JRST	BELOW
					;
					;     ALLOCATE A BLOCK ABOVE THE EXACT RANGE.  SEE IF THERE IS ONE
					;     ON THE SLOT (ERSIZE+1) LIST, OTHERWISE TRY THE TAIL.
					;
	400146'	260 17 0 00 400233'	ABOVE:	PUSHJ	TOP,MISCA
	400147'	260 17 0 00 400155'		PUSHJ	TOP,TAILA
	400150'	260 17 0 00 400165'		PUSHJ	TOP,GROWT
	400151'	352 00 0 14 000001 		AOSE	PASS	^.PASS(psa)^	; TRY COLLAPSE IF FIRST PASS
	400152'	254 00 0 00 400132'		JRST	HFL.AC
	400153'	260 17 0 00 400244'		PUSHJ	TOP,COLLPS
	400154'	254 00 0 00 400146'		JRST	ABOVE

					;
					;     SUBROUTINE TO ALLOCATE FROM TAIL.  CHECK IF DESIRED BLOCK SIZE
					;     STAYS WITHIN ALLOCATED LOW SEGMENT SIZE.
					;
	400155'	201 07 1 03 000001 	TAILA:	MOVEI	RES,@TAIL(HEAP)	; GET PTR TO TAIL
	400156'	200 05 0 00 000007 		MOVE	T,RES		; SET T TO NEW TAIL PR
	400157'	270 05 0 00 000002 		ADD	T,CNT
	400160'	313 05 0 00 000000*		CAMLE	T,.JBREL##	; CHECK IF EXCEEDS LOW SEG SIZE
	400161'	263 17 0 00 000000 		POPJ	TOP,		; TOO BIG, RETURN
	400162'	202 05 0 03 000001 		MOVEM	T,TAIL(HEAP)	; OKAY, UPDATE TAIL PTR
	400163'	212 02 0 07 000000 		MOVNM	CNT,ASIZE(RES)	; MARK BLOCK AS ALLOCATED
	400164'	254 00 0 00 400075'		JRST	DONE
					;
					;     SUBROUTINE TO GROW TAIL.  CHECKS IF GROWTH WOULD EXCEED MAX
					;     CORE AVAILABLE TO USER; IF OKAY, EXTENDS LOW SEGMENT.
					;
	400165'	353 00 0 14 000002 	GROWT:	AOSLE	TCNT	^.TCNT(psa)^	; ALLOW COLLAPSE EVERY MXCNT TIMES
	400166'	254 00 0 00 400201'		JRST	NOGROW
	400167'	201 07 1 03 000001 		MOVEI	RES,@TAIL(HEAP)	; GET PTR TO TAIL
	400170'	200 05 0 00 000007 		MOVE	T,RES		; SET T TO NEW END
	400171'	270 05 0 00 000002 		ADD	T,CNT
	400172'	200 06 0 00 000005 		MOVE	R,T		; REMEMBER NEW TAIL
	400173'	552 05 0 00 400000*		HRRZM	T,.JBFF##	;SAVE NEW TOP OF THE WORLD
	400174'	047 05 0 00 000011 		CORE	T,		; TRY TO EXTEND
	400175'	263 17 0 00 000000 	SPLTFL:	POPJ	TOP,		; EXTENDING FAILS
	400176'	202 06 0 03 000001 		MOVEM	R,TAIL(HEAP)	; ADVANCE TAIL PTR
QUICKFIT	MACRO %53A(1155) 08:02 25-Feb-82 Page 1-6
NEWHPD	MAC	24-Oct-70 13:02

	400177'	212 02 0 07 000000 		MOVNM	CNT,ASIZE(RES)	; MARK BLOCK AS ALLOCATED
	400200'	254 00 0 00 400075'		JRST	DONE

	400201'	211 05 0 00 000004 	NOGROW:	MOVNI	T,MXTCNT	; RESET COUNTER
	400202'	202 05 0 14 000002 		MOVEM	T,TCNT^.TCNT(psa)^
	400203'	263 17 0 00 000000 		POPJ	TOP,		; RETURN HAVING DONE NOTHING
					;
					;     SUBROUTINE TO SPLIT EXACT RANGE BLOCKS.  SEARCHES LIST IN SLOTS FOR
					;     SIZES GREATER THAN THAT REQUIRED.  IF A BLOCK IS FOUND, IT IS
					;     SPLIT AND THE REMAINDER FREED.
					;
	400204'	211 05 0 00 000020 	SPLIT:	MOVNI	T,ERSIZE	; BUILD SEARCH CONTROL WORD
	400205'	270 05 0 00 000004 		ADD	T,SLOT		; LEFT: - (ERSIZE - (SLOT+1) + 1)
	400206'	515 05 0 05 000000 		HRLZI	T,0(T)		; MOVE TO LEFT HALF
	400207'	541 05 0 03 000000 		HRRI	T,0(HEAP)	; RIGHT: SLOT(HEAP)
	400210'	270 05 0 00 000004 		ADD	T,SLOT
	400211'	252 05 0 00 400175'		AOBJP	T,SPLTFL	; RETURN IF END OF SEARCH
	400212'	201 07 1 05 000002 		MOVEI	RES,@FLIST(T)	; GET FREE LIST PTR
	400213'	322 07 0 00 400211'		JUMPE	RES,.-2		; EXIT IF NONNULL LIST FOUND

	400214'	200 01 0 00 000007 	SPLTDO:	MOVE	BLK,RES		; UNCHAIN THE BLOCK
	400215'	260 17 0 00 400300'		PUSHJ	TOP,UNCHN

	400216'	200 06 0 07 000001 		MOVE	R,FSIZE(RES)	; GET SIZE OF BLOCK FOUND
	400217'	274 06 0 00 000002 		SUB	R,CNT		; SEE IF REM TOO SMALL
	400220'	303 06 0 00 000001 		CAILE	R,SMALL
	400221'	254 00 0 00 400225'		JRST	SPLTOK		; LEFT OVER WEENABLE

	400222'	200 06 0 07 000001 		MOVE	R,FSIZE(RES)	; LEFT OVER TOO SMALL
	400223'	212 06 0 07 000000 		MOVNM	R,ASIZE(RES)	; MARK AS ALLOCATED WITH UNSPLIT COUNT
	400224'	254 00 0 00 400075'		JRST	DONE

	400225'	212 02 0 07 000000 	SPLTOK:	MOVNM	CNT,ASIZE(RES)	; MARK AS ALLOCATED WITH SPLIT COUNT
	400226'	201 01 0 07 000000 		MOVEI	BLK,0(RES)	; SET T TO PORTION TO BE SPLIT
	400227'	270 01 0 00 000002 		ADD	BLK,CNT

	400230'	200 02 0 00 000006 		MOVE	CNT,R		; GET SIZE OF SPLIT BLOCK
	400231'	260 17 0 00 400355'		PUSHJ	TOP,FREE	; FREE IT
	400232'	254 00 0 00 400075'		JRST	DONE
					;
					;     SUBROUTINES TO SEARCH SLOT(0) AND SLOT(ERSIZE+1) LISTS FOR
					;     BLOCK LARGE ENOUGH TO HOLD CNT WORDS.  IF FOUND, REMAINDER
QUICKFIT	MACRO %53A(1155) 08:02 25-Feb-82 Page 1-7
NEWHPD	MAC	24-Oct-70 13:02

					;     IS SPLIT OFF AND FREED.
					;
	400233'	201 07 0 03 000023 	MISCA:	MOVEI	RES,FLIST+ERSIZE+1(HEAP)   ; PTR TO FREELIST SLOT TO SEARCH
	400234'	254 00 0 00 400236'		JRST	.+2
	400235'	201 07 0 03 000002 	MISCB:	MOVEI	RES,FLIST+0(HEAP)	; SLOT(0) SEARCH

	400236'	550 07 0 07 000000 	MSRCH:	HRRZ	RES,FNEXT(RES)	; ADVANCE TO NEXT SLOT
	400237'	326 07 0 00 400241'		JUMPN	RES,.+2		; IF ONE EXSISTS
	400240'	263 17 0 00 000000 		POPJ	TOP,
	400241'	317 02 0 07 000001 		CAMG	CNT,FSIZE(RES)	; SEE IF BLOCK LARGE ENOUGH
	400242'	254 00 0 00 400214'		JRST	SPLTDO
	400243'	254 00 0 00 400236'		JRST	MSRCH		; CONTINUE WITH NEXT
					;
					;     SUBROUTINE TO COLLAPSE ADJACENT BLOCKS OF FREE STORAGE. IN CODE
					;     BLK POINTS TO CURRENT BLOCK, NB TO NEXT BLOCK.
					;
	400244'	261 17 0 00 000002 	COLLPS:	PUSH	TOP,CNT	; SAVE CNT OF BLOCK BEING ALLOCATED
	400245'	261 17 0 00 000004 		PUSH	TOP,SLOT	; AND SLOT NUMBER
	400246'	201 07 0 03 000024 		MOVEI	NB,HSIZE(HEAP)	; GET PTR TO FIRST BLOCK
	400247'	200 01 0 00 000007 	CLLOOP:	MOVE	BLK,NB		; MOVE TO NEXT BLOCK
	400250'	311 01 0 03 000001 		CAML	BLK,TAIL(HEAP)	; SEE IF BLOCK IS OUT OF RANGE
	400251'	254 00 0 00 400275'		JRST	CLRET		; ALL DONE
	400252'	210 02 0 01 000000 		MOVN	CNT,ASIZE(BLK)	; IF SIZE NEG, THEN BLOCK FREE
	400253'	321 02 0 00 400256'		JUMPL	CNT,CLFREE	; BLK IS FREE, TRY TO COLLAPSE
	400254'	270 07 0 00 000002 		ADD	NB,CNT		; GET ADDRESS OF NEXT BLOCK
	400255'	254 00 0 00 400247'		JRST	CLLOOP

									; HERE, NB EQUALS BLK
	400256'	270 07 0 01 000001 	CLFREE:	ADD	NB,FSIZE(BLK)	; GET ADDRESS OF NEXT
	400257'	311 07 0 03 000001 		CAML	NB,TAIL(HEAP)	; SEE IF NEXT IS REALLY END
	400260'	254 00 0 00 400273'		JRST	CLTAIL
	400261'	210 06 0 07 000000 		MOVN	R,ASIZE(NB)	; TEST IF NEXT IS FREE
	400262'	325 06 0 00 400247'		JUMPGE	R,CLLOOP	; IN USE, CONTINUE

	400263'	260 17 0 00 400300'		PUSHJ	TOP,UNCHN	; UNCHAIN BLK
	400264'	200 02 0 01 000001 		MOVE	CNT,FSIZE(BLK)	; GET SIZE OF COMBINED BLOCK
	400265'	270 02 0 07 000001 		ADD	CNT,FSIZE(NB)
	400266'	260 17 0 00 400355'		PUSHJ	TOP,FREE	; ADD CREATED BLOCK TO CHAIN
	400267'	250 01 0 00 000007 		EXCH	BLK,NB		; UNCHAIN SECOND PART
	400270'	260 17 0 00 400300'		PUSHJ	TOP,UNCHN
	400271'	200 01 0 00 000007 		MOVE	BLK,NB		; RESTORE BLK POINTER
	400272'	254 00 0 00 400256'		JRST	CLFREE
QUICKFIT	MACRO %53A(1155) 08:02 25-Feb-82 Page 1-8
NEWHPD	MAC	24-Oct-70 13:02


	400273'	260 17 0 00 400300'	CLTAIL:	PUSHJ	TOP,UNCHN	; REMOVE THE BLK
	400274'	202 01 0 03 000001 		MOVEM	BLK,TAIL(HEAP)	; RESET THE TAIL POINTER
	400275'	262 17 0 00 000004 	CLRET:	POP	TOP,SLOT	; RESTORE SLOT NO. OF BLOCK BEING ALLOC'ED
	400276'	262 17 0 00 000002 		POP	TOP,CNT	; AND CNT
	400277'	263 17 0 00 000000 		POPJ	TOP,

					;
					;     SUBROUTINE TO UNCHAIN A BLOCK, ENTERED WITH BLK POINTING
					;     TO BLOCK TO UNCHAIN
					;
	400300'	554 05 0 01 000000 	UNCHN:	HLRZ	T,FPREV(BLK)	; GET PTR TO PREVIOUS BLOCK
	400301'	550 06 0 01 000000 		HRRZ	R,FNEXT(BLK)	; GET PTR TO NEXT BLOCK
	400302'	322 06 0 00 400304'		JUMPE	R,.+2		; IF NEXT NONNULL, SET NEXT.PREV = BLK.PREV
	400303'	506 05 0 06 000000 		HRLM	T,FPREV(R)
	400304'	542 06 0 05 000000 		HRRM	R,FNEXT(T)	; FLIST (SLOT) OR PREV.NEXT = BLK.NEXT
	400305'	263 17 0 00 000000 		POPJ	TOP,
					;
					;     DISPOSE -- OPERATOR TO FREE AN ALED BLOCK.  CHECKS THAT
					;     BLOCK IS IN FACT ALLOCATED AND THAT BLOCK IS IN RANGE.
					;     RETURNS A NIL PTR FOR NIL'ING PTR VAR DISPOSED.
					;
	400306'				DSPOS.:
	400306'	201 01 0 00 000001 		MOVEI	R1,1
	400307'	273 01 0 17 000000 		ADDB	R1,0(TOP)
	400310'	201 00 1 01 777777 		MOVEI	R0,@-1(R1)
	400311'	261 17 0 00 000014 		PUSH	TOP,PSA
	400312'	200 14 0 15 000017 		MOVE	PSA,$QFIT(PDA)
	400313'	316 00 0 14 000011 		CAMN	R0,DUMPF	^.DUMPF(psa)^	; are we pitching our secret thing?
	400314'	254 00 0 00 400341'		JRST	ECH			;   yes, screw you
						$SAVE	REGSAVE,2,7^
	400315'	124 02 0 14 000003 		dmovem	$first,REGSAVE^.REGSAVE(psa)^
	400316'	124 04 0 14 000005 		dmovem	$first+2,2+REGSAVE^.REGSAVE(psa)^
	400317'	124 06 0 14 000007 		dmovem	$first+4,4+REGSAVE>>>>^^.REGSAVE(psa)^
	400320'	200 02 0 00 000000 		MOVE	EXP1,R0
	400321'	201 05 0 00 000104 		MOVEI	5,"D"		; a dispose
	400322'	260 17 0 00 400427'		PUSHJ	TOP,WRREC	; do it
	400323'	201 01 0 02 777777 		MOVEI	BLK,-1(EXP1)	; POINT AT BLOCK DESC WORD
						IFN	DEBUG	<PUSHJ TOP,TELBLK>
	400324'	201 03 1 14 000000 		MOVEI	HEAP,@CHEAP	^.CHEAP(psa)^; GET PTR TO HEAP
	400325'	322 03 0 00 400347'		JUMPE	HEAP,DISERR	; IF NOT INIT'ED, PTR MUST BE BAD
	400326'	311 01 0 03 000001 		CAML	BLK,TAIL(HEAP)	; CHECK THAT PTR IS NOT PAST END OF HEAP
QUICKFIT	MACRO %53A(1155) 08:02 25-Feb-82 Page 1-9
NEWHPD	MAC	24-Oct-70 13:02

	400327'	254 00 0 00 400347'		JRST	DISERR
	400330'	305 01 0 03 000024 	DISCHK:	CAIGE	BLK,HSIZE(HEAP)	; CHECK IF BLK IN THIS HEAP
	400331'	254 00 0 00 400343'		JRST	DISPOP		; NO, CHECK FOR PREVIOUS
	400332'	210 02 0 01 000000 		MOVN	CNT,ASIZE(BLK)	; MOVE NEG. ALLOCATED COUNT
	400333'	321 02 0 00 400352'		JUMPL	CNT,EFALLOC	; IF THIS IS NEG., BLOCK WAS FREE
	400334'	260 17 0 00 400355'		PUSHJ	TOP,FREE
	400335'	201 01 0 00 377777 		MOVEI	BLK,377777	; LOAD NIL PTR, TO BE STORED INTO PTR
						$RESTORE REGSAVE,2,7^
	400336'	120 02 0 14 000003 		dmove	$first,REGSAVE^.REGSAVE(psa)^
	400337'	120 04 0 14 000005 		dmove	$first+2,2+REGSAVE^.REGSAVE(psa)^
	400340'	120 06 0 14 000007 		dmove	$first+4,4+REGSAVE>>>>^^.REGSAVE(psa)^
	400341'	262 17 0 00 000014 	ECH:	POP	TOP,PSA
	400342'	263 17 0 00 000000 		POPJ	TOP,

	400343'	301 01 0 03 000000 	DISPOP:	CAIL	BLK,0(HEAP)	; MAKE SURE NOT IN HEADER
	400344'	254 00 0 00 400347'		JRST	DISERR
	400345'	201 03 1 03 000000 		MOVEI	HEAP,@LHEAP(HEAP)	; CHECK PREVIOUS FRAME
	400346'	326 03 0 00 400330'		JUMPN	HEAP,DISCHK
	400347'				DISERR:
	400347'	200 00 0 17 000000 		MOVE	R0,0(TOP)
						$RTERROR ($EXSPC,$SPCBP)^
	400350'	201 01 0 00 014004 		movei	r1,$errcode($EXSPC,$SPCBP,$false)^$EXSPC*2000+$false*1000+$SPCBP^^
	400351'	254 00 0 00 400134*		jrst	rt.err^
	400352'				EFALLOC:
	400352'	200 00 0 17 000000 		MOVE	R0,0(TOP)
						$RTERROR ($EXSPC,$SPCFF)^
	400353'	201 01 0 00 014005 		movei	r1,$errcode($EXSPC,$SPCFF,$false)^$EXSPC*2000+$false*1000+$SPCFF^^
	400354'	254 00 0 00 400351*		jrst	rt.err^
					;
					;     SUBROUTINE TO FREE A BLOCK.  ENTERED WITH BLK POINTING
					;     TO BLOCK DESC WORD, AND SIZE IN CNT.
					;
	400355'	260 17 0 00 400021'	FREE:	PUSHJ	TOP,CSLOT	; GET SLOT INDEX FOR THIS SIZE BLOCK
	400356'	201 05 0 03 000002 		MOVEI	T,FLIST(HEAP)	; SET T TO POINT AT FLIST SLOT
	400357'	270 05 0 00 000004 		ADD	T,SLOT
	400360'	201 06 1 05 000000 		MOVEI	R,@0(T)		; SET R TO ADDR OF FIRST FREE
	400361'	202 02 0 01 000001 		MOVEM	CNT,FSIZE(BLK)	; SAVE SIZE OF BLOCK
	400362'	552 06 0 01 000000 		HRRZM	R,FNEXT(BLK)	; BLK.NEXT = FLIST(SLOT)
	400363'	506 05 0 01 000000 		HRLM	T,FPREV(BLK)	; BLK.PREV = ADDR (FLIST (SLOT))
	400364'	322 06 0 00 400366'		JUMPE	R,.+2		; SKIP IF THERE IS NO NEXT
	400365'	506 01 0 06 000000 		HRLM	BLK,FPREV(R)	; NEXT.PREV = BLK
	400366'	202 01 0 05 000000 		MOVEM	BLK,0(T)	; SET SLOT TO POINT TO THIS BLOCK
QUICKFIT	MACRO %53A(1155) 08:02 25-Feb-82 Page 1-10
NEWHPD	MAC	24-Oct-70 13:02

	400367'	263 17 0 00 000000 		POPJ	TOP,

					;
					;     MARK -- OPERATOR TO PUSH A HEAP FRAME.  INITIALIZES A NEW HEAP
					;     HEADER AND UPDATES CURRENT HEAP PTR.
					;
	400370'				MARK.:
	400370'	250 14 0 15 000017 		EXCH	PSA,$QFIT(PDA)
						$SAVE	REGSAVE,3,7^
	400371'	124 03 0 14 000003 		dmovem	$first,REGSAVE^.REGSAVE(psa)^
	400372'	124 05 0 14 000005 		dmovem	$first+2,2+REGSAVE^.REGSAVE(psa)^
	400373'	202 07 0 14 000007 		movem	$first+4,4+REGSAVE>^.REGSAVE(psa)^
	400374'	260 17 0 00 400000'		PUSHJ	TOP,INIT
	400375'	202 03 0 00 000002 		MOVEM	HEAP,HP		; SAVE PTR TO OLD (CURRENT) HEAP
						IFN	DEBUG	<PUSHJ TOP,TELMAR>
	400376'	201 03 1 03 000001 		MOVEI	HEAP,@TAIL(HEAP)	; PUT NEW (NEXT) FRAME AT TAIL OF OLD
	400377'	260 17 0 00 400004'		PUSHJ	TOP,NEWHP	; INITIALIZE
						$RESTORE REGSAVE,3,7^
	400400'	120 03 0 14 000003 		dmove	$first,REGSAVE^.REGSAVE(psa)^
	400401'	120 05 0 14 000005 		dmove	$first+2,2+REGSAVE^.REGSAVE(psa)^
	400402'	200 07 0 14 000007 		move	$first+4,4+REGSAVE>^.REGSAVE(psa)^
	400403'	250 14 0 15 000017 		EXCH	PSA,$QFIT(PDA)
	400404'	263 17 0 00 000000 		POPJ	TOP,
					;
					;     RELEASE -- OPERATOR TO POP HEAP FRAMES.  TAKES SUPPLIED HEAP
					;     POINTER AND CHECKS THAT IT IS VALID.  THEN RESETS CURRENT
					;     HEAP POINTER TO THAT HEAP.  MORE THAN ONE HEAP CAN BE UNWOUND.
					;
	400405'				RLEAS.:
	400405'	250 14 0 15 000017 		EXCH	PSA,$QFIT(PDA)
						$SAVE	REGSAVE,3,7^
	400406'	124 03 0 14 000003 		dmovem	$first,REGSAVE^.REGSAVE(psa)^
	400407'	124 05 0 14 000005 		dmovem	$first+2,2+REGSAVE^.REGSAVE(psa)^
	400410'	202 07 0 14 000007 		movem	$first+4,4+REGSAVE>^.REGSAVE(psa)^
	400411'	201 03 1 14 000000 		MOVEI	HEAP,@CHEAP	^.CHEAP(psa)^; BACKWARDS SEARCH FOR CORRECT HEAP
						IFN	DEBUG	<PUSHJ TOP,TELREL>
	400412'	316 02 0 00 000003 		CAMN	HP,HEAP		; CHECK IF THE SAME AS SUPPLIED
	400413'	254 00 0 00 400421'		JRST	RLOK		; HEAP FOUND
	400414'	201 03 1 03 000000 		MOVEI	HEAP,@LHEAP(HEAP)	; CHECK PREVIOUS ONE
	400415'	326 03 0 00 400412'		JUMPN	HEAP,.-3	; TRY AGAIN
	400416'				RLBAD:
	400416'	200 00 0 17 000000 		MOVE	R0,0(TOP)
QUICKFIT	MACRO %53A(1155) 08:02 25-Feb-82 Page 1-11
NEWHPD	MAC	24-Oct-70 13:02

						$RTERROR ($EXSPC,$SPCRH)^
	400417'	201 01 0 00 014006 		movei	r1,$errcode($EXSPC,$SPCRH,$false)^$EXSPC*2000+$false*1000+$SPCRH^^
	400420'	254 00 0 00 400354*		jrst	rt.err^
	400421'	202 02 0 14 000000 	RLOK:	MOVEM	HP,CHEAP	^.CHEAP(psa)^; UPDATE CURRENT POINTER
						$RESTORE REGSAVE,3,7^
	400422'	120 03 0 14 000003 		dmove	$first,REGSAVE^.REGSAVE(psa)^
	400423'	120 05 0 14 000005 		dmove	$first+2,2+REGSAVE^.REGSAVE(psa)^
	400424'	200 07 0 14 000007 		move	$first+4,4+REGSAVE>^.REGSAVE(psa)^
	400425'	250 14 0 15 000017 		EXCH	PSA,$QFIT(PDA)
	400426'	263 17 0 00 000000 		POPJ	TOP,

					;
					;     DEBUGGING OUTPUT ROUTINES
					;
						IFN	DEBUG	<
					TELCNT:	MOVE	R,CNT
						SETZ	T,
						JUMPE	R,TCLOOP
						ROTC	T,3		; REMOVE LEADING ZEROS
						JUMPE	T,.-1
					TCLOOP:	ANDI	T,7
						ADDI	T,060
						OUTCHR	T
						JUMPE	R,TELRET	; END OF NUMBER
						ROTC	T,3		; GET NEXT OCTAL DIGIT
						JRST	TCLOOP

					TELBLK:	OUTSTR	[ASCIZ/@/]
						MOVEI	T,6		; LOOP COUNT
						MOVSS	BLK		; ADDR IN RIGHT HALF
					TBLOOP:	ROT	BLK,3		; PUT NEXT OCTAL DIGIT IN BITS 33-35
						MOVE	R,BLK		; TAKE CHAR(BLK)
						ANDI	R,7
						ADDI	R,060
						OUTCHR	R
						SOJG	T,TBLOOP
						OUTSTR	[ASCIZ/	/]	; TAB
					TELRET:	POPJ	TOP,

					TELREL:	OUTSTR	[ASCIZ/R/]
						MOVE	BLK,HP
						PUSHJ	TOP,TELBLK
QUICKFIT	MACRO %53A(1155) 08:02 25-Feb-82 Page 1-12
NEWHPD	MAC	24-Oct-70 13:02

						POPJ	TOP,

					TELMAR:	OUTSTR	[ASCIZ/M/]
						MOVE	BLK,HEAP
						PUSHJ	TOP,TELBLK
						POPJ	TOP,	>

					;
					; Dumping a record per NEW and DISPOSE operation. R1 has a char code identifying
					; which one we're doing, EXP1 points to the block (not length word).  If
					; DUMPF is zero, we have to open the file.
					;
	400427'	261 17 0 00 000014 	WRREC:	PUSH	TOP,14			; save it
	400430'	336 06 0 14 000011 		SKIPN	6,DUMPF	^.DUMPF(psa)^		; get file block addr
	400431'	260 17 0 00 400460'		PUSHJ	TOP,OPENFI		;   gotta open the file
	400432'	321 06 0 00 400456'		JUMPL	6,GETOUT	; negative, don't recurse
	400433'	202 05 1 06 000000 		MOVEM	5,@0(6)		; deposit character
	400434'	260 17 0 00 000000*		PUSHJ	TOP,PUTCH.
	400435'	000 00 0 06 000000 		ARG	0,0(6)			; put it
	400436'	210 05 0 02 777777 		MOVN	5,-1(EXP1)		; get positive size of block
	400437'	260 17 0 00 000000*		PUSHJ	TOP,WR.FDN		; write out size
	400440'	000 00 0 06 000000 		arg	0,0(6)			; the file block
	400441'	000 00 0 00 000005 		arg	0,5			; the integer
	400442'	000 02 0 00 000006 		arg	2,6			; field width
						extern	INT.W,WR.FDN,WR.FDR,PUTCH.,WR.LNR
	400443'	260 17 0 00 000000*		PUSHJ	TOP,WR.FDR		; remembered write
	400444'	000 00 0 00 000002 		ARG	0,EXP1			; the block addr
	400445'	000 10 0 00 000006 		arg	10,6			; octal 6 chars
	400446'	550 04 0 17 777775 		HRRZ	4,-3(TOP)		; load return address
	400447'	260 17 0 00 400443*		PUSHJ	TOP,WR.FDR		; another remembered write
	400450'	000 00 0 00 000004 		arg	0,4
	400451'	000 10 0 00 000006 		arg	10,6			 ; octal 6 chars
	400452'	260 17 0 00 000000*		PUSHJ	TOP,WR.LNR
	400453'	262 17 0 00 000014 		POP	TOP,14			; restore
	400454'	202 06 0 14 000011 		MOVEM	6,DUMPF	^.DUMPF(psa)^	; record fvariable
	400455'	263 17 0 00 000000 		POPJ	TOP,0
					;
	400456'	262 17 0 00 000014 	GETOUT:	POP	TOP,PSA		; restore
	400457'	263 17 0 00 000000 		POPJ	TOP,0
					;
	400460'	476 17 0 14 000011 	OPENFI:	SETOM	TOP,DUMPF	^.DUMPF(psa)^; prevent recursion
	400461'	260 17 0 00 000000*		PUSHJ	TOP,REWRT.##
QUICKFIT	MACRO %53A(1155) 08:02 25-Feb-82 Page 1-13
NEWHPD	MAC	24-Oct-70 13:02

	400462'	000 04 0 00 000001 		arg	4,1
	400463'	000 00 0 00 400473'		arg	0,[point 7,[asciz/HEAP.DMP/]]
	400464'	000 00 0 00 000010 		arg	0,^d8
	400465'	000 00 0 00 400474'		arg	0,[00]
	400466'	200 06 0 00 000001 		MOVE	6,R1
	400467'	263 17 0 00 000000 		POPJ	TOP,0
						$END	QFIT,INIT^
						END

NO ERRORS DETECTED

HI-SEG. BREAK IS 400475
PROGRAM BREAK IS 000000
CPU TIME USED 03:40.099

16P CORE USED
QUICKFIT	MACRO %53A(1155) 08:02 25-Feb-82 Page S-1
NEWHPD	MAC	24-Oct-70 13:02		SYMBOL TABLE

ABOVE		400146'		I.QFIT		400000'	sin	SPLTFL		400175'		.REGSA		000003	spd
ALC0.		400000'	ent	INIT		400000'		SPLTOK		400225'		.TCNT		000002	spd
ARG		000000		INT.W		000000	ext	T		000005
ASIZE		000000		LHEAP		000000		TAIL		000001
BELOW		400135'		M4.0		000000	ext	TAILA		400155'
BLK		000001		M6.3		000000	ext	TOP		000017	spd
CLFREE		400256'		M6.4		000000	ext	TWAIT.		000000	ext
CLLOOP		400247'		M6.5		000000	ext	UNCHN		400300'
CLRET		400275'		M6.6		000000	ext	WR.FDN		400437'	ext
CLTAIL		400273'		MARK.		400370'	ent	WR.FDR		400447'	ext
CNT		000002		MAXSZ		000021		WR.LNR		400452'	ext
COLLPS		400244'		MINSZ		000002		WRREC		400427'
CORE	047000	000011		MISCA		400233'		WRTPC.		000000	ext
CSHIGH		400031'		MISCB		400235'		X.QFIT		000000	sin
CSLOT		400021'		MSRCH		400236'		$ABSLO		000000	spd
CSLOW		400027'		MXTCNT		000004		$EXSPC		000006	spd
DEBUG		000000		NB		000007		$EXSTO		000004	spd
DIE.		000000	ext	NEW.		400036'	ent	$FALSE		000000	spd
DISCHK		400330'		NEWERR		400033'		$FIRST		000003	spd
DISERR		400347'		NEWHP		400004'		$HILOC		400000	spd
DISPOP		400343'		NEWRET		400107'		$LAST		000007	spd
DONE		400075'		NOGROW		400201'		$LEN		000004	spd
DSPOS.		400306'	ent	OPENFI		400460'		$LOC	777777	777777	spd
ECH		400341'		P.QFIT		000000	ext	$LOLOC		000000	spd
EFALLO		400352'		PDA		000015	spd	$MAXLO		000000	spd
ERSIZE		000020		PSA		000014	spd	$MAXST		000013	spd
ESRCH		400122'		PUTCH.		400434'	ext	$MAXTE		000000	spd
EX.SET		000000	ext	R		000006		$NEEDP		000001	spd
EXACT		400064'		R0		000000	spd	$NONE		000000	spd
EXP1		000002	spd	R1		000001	spd	$QFIT		000017	spd
EXP2		000003	spd	REGIN		000001		$SPCBP		000004	spd
FLIST		000002		RES		000007		$SPCFF		000005	spd
FNEXT		000000		REWRT.		400461'	ext	$SPCNN		000003	spd
FPREV		000000		RLBAD		400416'		$SPCRH		000006	spd
FREE		400355'		RLEAS.		400405'	ent	$STATS		000000	spd
FSIZE		000001		RLOK		400421'		$TRUE		000001	spd
GETOUT		400456'		RT.ERR		400420'	ext	.CHEAP		000000	spd
GROWT		400165'		S.QFIT		000013	sin	.DESTR		000012	spd
HEAP		000003		SLOT		000004		.DUMPF		000011	spd
HFL.AC		400132'		SMALL		000001		.JBFF		400173'	ext
HP		000002		SPLIT		400204'		.JBREL		400160'	ext
HSIZE		000024		SPLTDO		400214'		.PASS		000001	spd
&@3š